S01900005241365F6D6963726F6464735F746573742E737265636F
S3150000000050EE0020552D0000012C0000512D00005F
S31500000010512D0000512D0000512D0000512D0000E2
S31500000020000000000000000000000000490B000076
S31500000030512D000000000000610B0000BD0B000008
S315000000402D160000FD170000E9150000B114000090
S31500000050291400003D15000079150000C92900008B
S31500000060FD27000000000000000000000000000066
S31500000070000000000000000000000000000000007A
S31500000080000000000000000000000000000000006A
S31500000090000000000000000000000000000000005A
S315000000A0000000000000000000000000000000004A
S31500000400FFFFFFFFFFFDFFFFFCFFFFFFFFFFFFFFFB
S31500000410FCFFFFFFFFFFFFFFFCFFFF00FFFFFF00EA
S31500000420FCFF0F20FFFF0F20FCFF7F40FFFF7F40F8
S31500000430FCFF0D40FFFF0D40FFFFFFFFFFFFFFFF2B
S31500000440FFFFFFFFFFFFFFFFFFFFFFFFFFFFFFFFB6
S31500000450FFFFFFFFFFFFFFFFFFFFFFFFFFFFFFFFA6
S31500000460FFFFFFFFFFFFFFFFFFFFFFFFFFFFFFFF96
S31500000470FFFFFFFFFFFFFFFFFFFFFFFFFFFFFFFF86
S31500000480FFFFFFFFFFFFFFFFFFFFFFFFFFFFFFFF76
S31500000490FFFFFFFFFFFFFFFFFFFFFFFFFFFFFFFF66
S315000004A0FFFFFFFFFFFFFFFFFFFFFFFFFFFFFFFF56
S315000004B0FFFFFFFFFFFFFFFFFFFFFFFFFFFFFFFF46
S315000004C0FFFFFFFFFFFFFFFFFFFFFFFFFFFFFFFF36
S315000004D0FFFFFFFFFFFFFFFFFFFFFFFFFFFFFFFF26
S315000004E0FFFFFFFFFFFFFFFFFFFFFFFFFFFFFFFF16
S315000004F0FFFFFFFFFFFFFFFFFFFFFFFFFFFFFFFF06
S3150000050010B5054C237833B9044B13B10448AFF347
S3150000051000800123237010BD6001FE1F0000000053
S31500000520E08C010008B5034B1BB103490348AFF348
S31500000530008008BD000000006401FE1FE08C010081
S31500000540022800D07047024B0248596801F0CABA27
S31500000550FC600100100EFE1F70B50C46064606F044
S315000005600DFFD4B1204605F009FD054620B11EB1A8
S3150000057056F8042C002A03DB06F008FF284670BD57
S3150000058022F00042083AA24228BF2246314614F021
S31500000590ADFD304605F092FDEEE73046254605F006
S315000005A08DFD284670BD00BF05F0E8BC08B105F01A
S315000005B085BD704708B1FFF7CFBF084605F0DEBC22
S315000005C000F0BCB8044AD2E90031013341F1000120
S315000005D0C2E90031704700BF9001FE1FFFFFFFFF19
S315000005E02DE9F0433A4E337883B00D46002B34D0D4
S315000005F0384B394F5E68394C3948694602F046F93E
S315000006000099711A374ED4E90002D6E90046D7E9B7
S31500000610003704FB02F200FB0622A3FB0136A4FB13
S3150000062000401C19024401FB076646EB0206204601
S3150000063021A3D3E90023314614F022FB2860C0171A
S315000006406860314620461CA3D3E9002314F018FB4A
S315000006500020AA6003B0BDE8F083DFF87880204868
S315000006601D4F1E4C414602F023F91D4802F000F9C9
S3150000067098F808004FF0010909FA00F014F034F870
S315000006800FA3D3E9002314F0C3F90FA3D3E9002382
S3150000069014F094F814F00CFB86F80090D8F8046077
S315000006A0C7E90001A6FB000306FB0131C4E900010E
S315000006B0A2E700BFAFF3008000CA9A3B000000002B
S315000006C000000000389C8C410000000065CDCD4143
S315000006D09801FE1F086101008801FE1F8001FE1FB0
S315000006E0180EFE1F9001FE1F00B50E4C83B00023AE
S315000006F02370019014F0D3FF019902460A4800F0D6
S31500000700B3FC23782BB9012006F0E2FE2378002BF8
S31500000710F9D04FF47A7006F0DBFE4FF47A7006F0EB
S31500000720D7FEF6E79901FE1F340EFE1F024BB0FA04
S3150000073080F04009186070479C01FE1F38B501FB28
S3150000074000F5284605F01AFC044618B12A46002191
S3150000075014F0F4FC204638BD10B10379022B00D00A
S315000007607047024B01221A70704700BF9901FE1FA5
S3150000077030B54D494D48A7B000F0BCFC00B1FEE7CE
S315000007804B4B4C4A4C4C4D4D039593E8030009AB3B
S315000007900990ADF828104FF008306FF07F41CDE991
S315000007A004120093069006AB05AA04A903A802F05A
S315000007B043FE2368012B06D04FF4FA7006F088FE3C
S315000007C02368012BF8D10FA808F096FA3C4C3D4956
S315000007D03D4A3E4B0FA8CDE90F41CDE9112308F064
S315000007E099FA90B30024022248F613033848CDE95B
S315000007F00B448DF82D20ADF82E3003F04FFF354A0F
S31500000800354B0546CDE900320BA9344B344A0C95DD
S31500000810204608F0D7FD03E04FF47A7006F058FE44
S3150000082001214FF47A7008F0F9FD04460028F3D14F
S3150000083014A808F08DFA14AB2246214619A808F030
S31500000840A3F828B12748FFF74FFF2748FFF74CFFCB
S315000008500DA807F075FB254A254919AB0DA808F028
S315000008603BF9D0B907F0C4FD07900AF0E3FA214B33
S3150000087002460DA907A808F09BF988B9089000223E
S3150000088008A907A807F0EEFE10B9089B01330893E4
S315000008904FF47A7006F01CFEF1E71748FFF724FFC5
S315000008A01648FFF721FF00BF30610100340EFE1F1E
S315000008B084600100C0A800019C01FE1FC0A8000AB8
S315000008C0A9050000AD050000B5050000C105000042
S315000008D0106001008D09000055090000390900006B
S315000008E00109000020600100F85F01008886010010
S315000008F03C6001005C600100486001006C60010022
S3150000090010B50221112284B0084603F087FA094A7D
S31500000910431C10600AD000226424009203AB1146E7
S31500000920039403F02FFD012004B010BD002004B095
S3150000093010BD00BFA401FE1F10B5054C02212068A2
S3150000094003F0CAFE206803F0B9FC012010BD00BF09
S31500000950A401FE1F30B50B4DD0F88C02286083B081
S315000009601C4600900848082300680193002303F002
S31500000970A1FB0028B6BF012300230020237003B08B
S3150000098030BD00BFA001FE1FA401FE1FF0B5134835
S31500000990134F4FF47A7404FB03F385B0A0FB0303F3
S315000009A000249B090D4616460393224603AB2146B7
S315000009B03868009403F0E6FC23463246CDE900444D
S315000009C03868294603F0CCFA0A9A0028B6BF0123F4
S315000009D023462046137005B0F0BD00BFD34D62100C
S315000009E0A401FE1F704700BFFFF7FCBF00BE7047A3
S315000009F038B5164C4FF0FF31206806F0DBF80128B9
S31500000A0003D020680021FFF7F1FF114B1A7802B1DD
S31500000A1038BD01220F4D1A70FFF7E6FF2B68013B28
S31500000A202B60002BF4D00023194620681A4605F0E7
S31500000A30C3FE01284FF00001F0D02068FFF7D6FF73
S31500000A402B68013B2B60002BEDD138BD680EFE1FD5
S31500000A50640EFE1FB40EFE1F0C480D4A002310B58F
S31500000A600C4C037001214FF48070236005F030FEBA
S31500000A70094B186028B100F039F806F039FC00205F
S31500000A8010BD0146FFF7B2FFF5E700BF640EFE1F7B
S31500000A906C0EFE1FB40EFE1F680EFE1F044B036095
S31500000AA010B48023034C0C605DF8044B1360704750
S31500000AB0B812FE1FB80EFE1F044B036010B480234D
S31500000AC0034C0C605DF8044B136070471813FE1F4F
S31500000AD0B810FE1F00B583B00190FFF789FF01989B
S31500000AE003B05DF804EBFFF743BE00BF30B50E4C14
S31500000AF00E4923680E4D85B001229818CDE90115DF
S31500000B000C4B009220600C490C484FF47A6206F0B8
S31500000B1081FB0B4B186008B105B030BD014605B02E
S31500000B20BDE83040FFF762BFB40EFE1F50EE002056
S31500000B307C13FE1F6C61010060610100D50A000094
S31500000B407813FE1F00BEFEE71EF0040F0CBFEFF386
S31500000B500880EFF30980014908470000E10B000017
S31500000B600D4B1968EFF309821EF0100F08BF22ED36
S31500000B70108A22E9F04F0A604FF0100080F31188C6
S31500000B80BFF34F8FBFF36F8F06F0E0FC4FF000000E
S31500000B9080F3118800F002B8A81800200648016802
S31500000BA00A68B2E8F04F1EF0100F08BFB2EC108AC8
S31500000BB082F3098870470000A818002010B5EFF3EB
S31500000BC01184102383F3118806F0B0FC18B1034B8F
S31500000BD04FF080525A6084F3118810BD00ED00E09A
S31500000BE008B5836913F8023C022B02D0032B04D804
S31500000BF008BDBDE80840FFF7D1BF034B034A0448D0
S31500000C0040F2054101F0C6FFD862010058640100B8
S31500000C10EC62010010B44FF08071074C40F8041CE0
S31500000C2022F001026FF0020140E9034240E9091394
S31500000C305DF8044B44387047450B000008B5EFF3E8
S31500000C401181102383F311880A4A13680133012B9B
S31500000C50136000D008BD084A084B11605B68C3F3F7
S31500000C600803002BF6D0064B064A074840F2F64129
S31500000C7001F090FFE813FE1FDC13FE1F00ED00E0FD
S31500000C801463010030640100EC620100094A08B5F2
S31500000C9013683BB1013B13601BB9074B1B6883F319
S31500000CA0118808BD054B064A064840F2FF4101F08F
S31500000CB071FF00BFE813FE1FDC13FE1F5C6301001B
S31500000CC01C640100EC620100E8B1174A938918B26E
S31500000CD0002899B218DBBFF34F8F30BFBFF36F8F79
S31500000CE062B6BFF36F8F72B600280CDA0E4AB2F8FE
S31500000CF0FE339BB24AF2025043F42543A2F8FE03A8
S31500000D009181A2F8FE337047B2F8FE334AF2025CD4
S31500000D109BB2A2F8FEC343F425434FF0000CA2F8A1
S31500000D200CC0A2F8FE33D6E700E0014008B572B663
S31500000D3006F024FB0120FFF7C7FF62B6BDE80840B6
S31500000D4006F024BB0B4B0C4A1B68A2FB03239B0932
S31500000D50013BB3F1807F0BD24FF0E022074853618D
S31500000D604FF0F00C0021072380F823C09161136136
S31500000D70704700BFC815FE1FD34D621000ED00E09E
S31500000D8010B5264B264C1A78264882B0FF21D2B2DF
S31500000D908DF8032019701B78DBB20193019B019A31
S31500000DA0C3F30013072112062370016048BF062211
S31500000DB00BD5019B5B000193019B1B06114602F1BB
S31500000DC0FF32F6D4032907D00160174B174A18489B
S31500000DD040F2A24101F0DEFE9DF80330154A0F4CA9
S31500000DE04FF440710160DBB2F021237082F82210CB
S31500000DF0FFF7A8FF104A536B43F04043536362B6B4
S31500000E00BFF36F8FEFF3148C2CF0040C8CF3148863
S31500000E10BFF36F8F02DF00BEFDE700BF00E400E016
S31500000E20E013FE1FE413FE1F70630100446401001B
S31500000E30EC62010000ED00E000EF00E008B5EFF322
S31500000E400383103B5BB2002B08DA114B114ADB68B7
S31500000E501268C3F302239A4212D308BD03F160431A
S31500000E600D4A03F56143127893F80033B2EB131F72
S31500000E70EBD90A4B0A4A0B484FF4C16101F08AFECE
S31500000E80094B074A074840F21A6101F083FE00BF8A
S31500000E9000ED00E0E413FE1FE013FE1F9C6301005B
S31500000EA0FC630100EC620100C863010008B5054C53
S31500000EB04FF47A7006F00CFB23689A6818689369F9
S31500000EC09847F5E70800FE1FF0B51A4E85B00025D5
S31500000ED005E0B0F57A6F1CD0204601F0E7FF00214F
S31500000EE04FF0FF32084606F01BFD002140F2EA50A3
S31500000EF0019502F001F801AA04460028EFD03368F4
S31500000F0081699F681868BB689847019BE361002860
S31500000F10DFD1A06902F028FE01280346DCD10021BA
S31500000F2002A88DF80830039402F05AFB0128D3D1A9
S31500000F30DBE700BF0800FE1F30B5174D2B68596868
S31500000F404A78012A83B01AD09A68186813689847B5
S31500000F5090B92B689A6818689369984704460028E0
S31500000F60F7D10E4A0E490F480423CDE90032234635
S31500000F70802206F08BF918B9002003B030BDFEE7D9
S31500000F800523CDE90034084908482346802206F0A7
S31500000F907DF903B030BD00BF0800FE1FEC13FE1F35
S31500000FA06C640100C90E00007C640100AD0E0000F7
S31500000FB00D4BC2691B6870B53B2A05460E469968FB
S31500000FC09CBF3C22C26118684B69A9699847012EEB
S31500000FD0B0FA80F44FEA541401D0204670BD28467A
S31500000FE001F064FF204670BD0800FE1F00B50D4AE3
S31500000FF0C36883B000211A4201910FD00A4B1868CA
S3150000100060B101AA06F0CEFC019B3BB1074B4FF045
S3150000101080525A60BFF34F8FBFF36F8F03B05DF8F6
S3150000102004FB00BF00000701EC13FE1F00ED00E00B
S3150000103038B5054614F0AEF9044614F0ABF9A4B27F
S3150000104044EA00442C60012038BD00BF00B583B0DF
S315000010500023019301A8FFF7EBFF01980028F9D0C0
S3150000106003B05DF804FB00BF10B4046AA37803F074
S315000010707B03A370837803F00303D21A0B44026147
S31500001080A278C360837803F0030342F08002022B48
S31500001090A27005D00B78E37000205DF8044B704712
S315000010A00B8843F47E43E38100205DF8044B7047D0
S315000010B0F0B5846A85B005460F4694466E46B4B1CF
S315000010C094E80F0086E80F00EB691B7884F804C0EB
S315000010D02360EB6A2046C4E902736B6A9847AC6AE0
S315000010E01CB196E80F0084E80F0005B0F0BD344649
S315000010F0EAE700BF2DE9F04703460A78002018709A
S3150000110002F100724C695C6202F560528C69520110
S31500001110C3E907129A78C3E90A04012565F30102B7
S315000011209A704A7822B99A78022060F301029A707E
S3150000113091F90B50B74A8E7A6809203005F01F07DF
S31500001140012404FA07F742F82070BFF34F8FBFF36C
S315000011506F8FB148B14F05F1C00C360150F82CE045
S315000011606FF3104E40F82CE002EB050CF6B28CF84B
S31500001170006347F8253091F905500E794FEA551C62
S315000011800CF1200C05F01F0E04FA0EFE42F82CE0BE
S31500001190BFF34F8FBFF36F8F05F1C00C02EB05084D
S315000011A050F82CE03601F6B26FF3104E40F82CE002
S315000011B088F8006347F8253091F907508E794FEA91
S315000011C0551C0CF1200C05F01F0E04FA0EFE42F819
S315000011D02CE0BFF34F8FBFF36F8F05F1C00C02EB0E
S315000011E0050850F82CE03601F6B26FF3104E40F8C1
S315000011F02CE088F8006347F8253091F909600D7AEC
S315000012004FEA561C0CF1200C06F01F0E04FA0EFED7
S3150000121042F82CE0BFF34F8FBFF36F8F06F1C00C7F
S31500001220324450F82CE02D01EDB26FF3104E40F829
S315000012302CE082F8005347F82630EFF3108584F34C
S315000012401088774A0E78D2F800014FF00044F44037
S3150000125020EA0400C2F80001D2F8002185F31088C4
S315000012601A6ACD6900209070107150729072D07217
S3150000127050830C7840F2FF30E040C00744BF402066
S31500001280D0740620107708784E788F7840F2FF34B5
S31500001290C440C878E10744BF4FF478419182C10049
S315000012A0032E41EA071100F0B080002E14BFF22091
S315000012B0E220C9B211709071297B490001F0020148
S315000012C051736978A878C901400100F02000C9B2BD
S315000012D00143002010722E78B01E012840F28C8047
S315000012E0C9B2D17169688878507010784C7864F307
S315000012F001001070C87890740978D07901F05C010B
S3150000130000F0A3000143D1710020C3E90300C3E943
S315000013100500D3F81C80404C98F9057007F1C00C05
S31500001320790954F82C90890001F160414FF0010EC3
S3150000133001F5614160F3104907F01F0744F82C904E
S315000013400EFA07F7C1F880710F6098F90BC0354F98
S315000013500CF1C0094FEA5C1154F829A0890001F18B
S31500001360604101F5614160F3104A0CF01F0C44F82E
S3150000137029A00EFA0CFCC1F880C1C1F800C098F98A
S31500001380071001F1C0094FEA511C54F829A04FEA91
S315000013908C0C0CF1604C0CF5614C60F3104A01F0BA
S315000013A01F0144F829A00EFA01F1CCF88011CCF8FF
S315000013B0001098F909C00CF1C0084FEA5C110CF056
S315000013C01F0C0EFA0CFE54F828C0890060F3104C6E
S315000013D001F1604144F828C001F5614106F00306B9
S315000013E046F07006C1F880E1C1F800E096706A899F
S315000013F01A815F60BDE8F087022E08BF41F0100138
S31500001400FF20C9B25070D1717EE741F04001F22051
S315000014104FE700BF00E100E0006000403C14FE1F03
S31500001420006F04405549435330B4EFF30383103B38
S315000014305BB203F1C0011C4A1C4C52F821006FF349
S31500001440104042F8210054F82300C3691B691BB100
S3150000145003691BB130BC7047036963B9046AA3789A
S3150000146003F07F03002143F00403A370802230BC05
S31500001470C160FFF71DBE827802F003010229C16830
S315000014800BD0046A91F800C084F803C002F003028E
S315000014909B1A0A44C0E90323DBE70C88056A44F477
S315000014A07E44EC81F2E700BF006000403C14FE1F62
S315000014B010B582B0EFF30383103B5BB203F1C001BA
S315000014C01C4A1D4C52F821006FF3104042F82100CF
S315000014D054F82340A27802F00303022B236A0CBFC0
S315000014E0198A5979A3690CBFC1F30801C9B20191E0
S315000014F033B90422204602B0BDE81040FFF7D8BD3C
S3150000150002F0030201A9606913F0F0FDD4E9052198
S31500001510A37803F003031A44C91AC4E9052109B1E3
S3150000152002B010BD0122204602B0BDE81040FFF710
S31500001530BFBD00BF006000403C14FE1F38B5EFF38E
S315000015400384103C0A4B64B2022253F82400056A55
S31500001550AB7803F07B03AB700021FFF7A9FDC03425
S31500001560044B53F824206FF3104243F8242038BD6F
S315000015703C14FE1F0060004010B5EFF30384103CDE
S31500001580174B64B253F82400837803F00303022B4D
S31500001590036A0CBF198A597993F804C00CBFC1F3CA
S315000015A00801C9B21CF0100F0CF0380206D093F8EF
S315000015B01CC01CF0010F08BF42F0400293F804C0A3
S315000015C00CF0C70C83F804C0FFF772FDC034054B5E
S315000015D053F824206FF3104243F8242010BD00BFB7
S315000015E03C14FE1F0060004010B582B0EFF3038488
S315000015F0103C64B20B4B53F82430D3E90123916AB3
S315000016009162D3E908320091019268469847C03446
S31500001610054B53F824206FF3104243F8242002B000
S3150000162010BD00BF3C14FE1F006000402DE9F04FC6
S3150000163089B0EFF303856D4B103D1A6801926DB2C8
S315000016406B4AD3F8409052F825A06A4AD2F8008037
S315000016500022CDE90222CDE90422CDE90622B9F124
S31500001660000F12D04F460126B7FA87F4DAF8142095
S31500001670C4F11F04A4F18001526F8DF8081002A86E
S3150000168006FA04F49047A743EED1B8F1000F10D044
S3150000169047460126DAF81420B7FA87F4C4F11F0486
S315000016A08DF80840526F02A806FA04F49047A74343
S315000016B0F0D1019B5FEA134B12D014270126DAF80A
S315000016C014208DF80870BBFA8BF4C4F11F0406943D
S315000016D0526F02A806FA04F490473BEA040BEED1D7
S315000016E019F0100F25D0414A0121C2F84011D2F855
S315000016F040110029FBD172B6D2F81002D2F814328A
S31500001700D2F81872D2F8D012D2F8D462D2F8D842EF
S3150000171020F0004021F00041C2F82801C2F82C3127
S31500001720C2F83071C2F83411C2F83861C2F83C41CF
S3150000173062B618F0010F04D02C4AD2F880100029A6
S315000017403FD018F0020F28D0DAF814301A69294B66
S31500001750D3F8C40040F3072006280346A8BF062393
S315000017605BB26FF006019942B8BF19464FF4747325
S315000017700028A2FB033232DB1F4800FA01F15B1896
S3150000178042F10002002A19481A494FF0FF3208BFF9
S315000017901A4602238265C1F88030144B019A1A60FA
S315000017A0144AC3F84090C035A3F5BE23C2F80080A2
S315000017B053F825206FF3104243F8252009B0BDE801
S315000017C0F08FDAF814100120C2F8800091F83C106E
S315000017D0814249F00A0908BFC2F82411B1E7064858
S315000017E04942C9B220FA01F1C9E700BF00500640DC
S315000017F03C14FE1F00580640B2E60E0010B586B037
S31500001800EFF30383103B5BB203F1C0010C4A0D4CAE
S3150000181052F8210054F823306FF3104042F82100AB
S315000018205A69152100230093CDE90133CDE903332D
S31500001830526F05938DF800106846904706B010BDAC
S31500001840006000403C14FE1F0023036018467047EA
S315000018500B0A1B01044853FA81F150F82130C3F3F7
S31500001860400300201370704700080440090A49012C
S3150000187001F1804101F5802100204B6813807047FB
S31500001880090A490101F1804123EA020001F580219C
S315000018901A4042EA00428A6000207047C8B201231B
S315000018A083404AB91A040B0A5B0103F1804303F52E
S315000018B0802300209A6070479AB2F4E7090A49012A
S315000018C001F1804101F5802110B40C6802EA0300A1
S315000018D0204362EA030202405DF8044B0A600020DE
S315000018E0704700BF090A490101F1804101F58021D5
S315000018F000204B68C3F30F431380704710B40B0AE4
S315000019005B0103F1804303F58023C8B25C680121C3
S3150000191081408BB201EA1441C91AB1FA81F1490931
S3150000192000205DF8044B1170704700BF090A490199
S3150000193001F1804123EA020001F580211A4042EAC2
S315000019400042CA6000207047014B00201A707047A1
S31500001950000D04400B0A5B0103F18043012A03F5E5
S3150000196080230AD0D868C9B24FF480328A40024335
S31500001970120C1204DA6000207047C8B2D96882409F
S315000019800A4392B2DA600020704700BF38B5048877
S31500001990002C4DD043680021043303EBC40040F211
S315000019A002450C4640F2034C40F2044E0FE06245FD
S315000019B030D153F8042C02F0B852B2F1807F14BF34
S315000019C041F0020144F002040833834211D01A8820
S315000019D0AA42ECD153F8042C02F0B852B2F1807F3F
S315000019E003F1080314BF41F0010144F001048342EE
S315000019F0EDD1C943CDB2012001F062F90D4B93F848
S31500001A00BB2414432C4083F8BB440120BDE8384076
S31500001A1001F026B97245D7D153F8042C02F0B8521A
S31500001A20B2F1807F0CBF44F0040441F00401CBE71F
S31500001A30FF25E0E700E00140F8B50446FFF7A6FF02
S31500001A40EFF31082012383F31088234E33681BB90A
S31500001A502249CB704023CB7033680133336082F365
S31500001A60108825882DB362681D4C013DADB202F188
S31500001A70080101EBC50500E008311068928810F4F2
S31500001A80803F4FEA12235FFA82FC0CEB031E09D05B
S31500001A9054F82E7020F480326FF3104744F82E70FD
S31500001AA044F82E201B0163448D4244F823000A4665
S31500001AB0E2D1EFF31082012383F31088336813B168
S31500001AC03368013B336033681BB904498020CB700F
S31500001AD0C87082F31088F8BD3814FE1F000D04404C
S31500001AE00008044008B50346034A1A600846FFF793
S31500001AF0A3FF002008BD00BF54524F5008B508464A
S31500001B00FFF79AFF002008BD70B584B002AB01262E
S31500001B1068460C461546ADF80C100292ADF800600A
S31500001B200193FFF733FFEFF3108286F310881D4908
S31500001B300B681BB91C48C3704023C3700B68013384
S31500001B400B6082F31088EA034FEA1423E4B219D437
S31500001B501B01164A234442F82350EFF31082012357
S31500001B6083F310880B6813B10B68013B0B600B689D
S31500001B701BB90D498020CB70C87082F310880020F5
S31500001B8004B070BD04EB0310084A52F820606FF3EE
S31500001B90104642F8206025F4803642F820601B018A
S31500001BA0D7E700BF3814FE1F000D044000080440AC
S31500001BB00023C0E90233436003601846704700BF44
S31500001BC08368002B18DD0222013B0A60FCD1836882
S31500001BD0002B11DD0322013B0A60FCD18368002B38
S31500001BE00ADD0322013B0A60FCD18368002B03DD7A
S31500001BF00222013B0A60FCD1704700BF8368002BBC
S31500001C0018DD0622013B0A60FCD18368002B11DD3A
S31500001C100722013B0A60FCD18368002B0ADD0722FC
S31500001C20013B0A60FCD18368002B03DD0622013BE1
S31500001C300A60FCD1704700BF8368002B17DD0022C5
S31500001C40013B0A60FCD18368002B10DD0122013BB9
S31500001C500A60FCD18368002B09DD0122013B0A6082
S31500001C60FCD18268002A02DD013A0B60FCD1704784
S31500001C7070B505460E462024013CD5E90101A4B203
S31500001C80FFF7BCFF002CF7D168684378B40044EA3C
S31500001C90C3140E2644F4C04406E0FFF791FF013E4C
S31500001CA04FEA440409D06868A9682304F5D5FFF70C
S31500001CB0A5FF013E4FEA4404F5D1D5E90101FFF73E
S31500001CC0BBFFD5E901014FF0100C344601228368B1
S31500001CD0002B20DD013B0C60FCD18368002B1ADD54
S31500001CE0013B0A60FCD10D688368C5F3C005002B73
S31500001CF045EA460608DD013B0A60FCD18368002BF5
S31500001D0002DD013B0C60FCD1BCF1010CDFD1FFF719
S31500001D1093FF304670BD0B68BCF1010CC3F3C003E2
S31500001D2043EA4606D3D1F2E7F8B504460E4601214A
S31500001D301F461546FFF79CFF01212046FFF798FF37
S31500001D40430735D5E368590504D52B6843F00203EC
S31500001D502B60E3681A0522D4830626D52046052182
S31500001D60FFF786FF450544BF02233B60040503D504
S31500001D703B6843F001033B60810644BF01233360A7
S31500001D80420644BF02233360030644BF0323336085
S31500001D9010F4807002D0042333600020F8BD2B6855
S31500001DA043F001032B608306D8D441F28930F8BD95
S31500001DB041F28830F8BD00BF10B501210446FFF797
S31500001DC057FF01212046FFF753FF41F2883310F0F9
S31500001DD0040F0CBF1846002010BD00BFF8B505461D
S31500001DE00F4616462024013CD5E90101A4B2FFF7AF
S31500001DF005FF002CF7D16868BC00477844EAC71491
S31500001E0044F4A0440E2706E0FFF7DAFE013F4FEA4E
S31500001E10440409D06868A9682204F5D5FFF7EEFEE8
S31500001E20013F4FEA4404F5D1D5E90101FFF7E6FE8B
S31500001E30D5E90101FFF7C4FE102405E0FFF7C0FE57
S31500001E40013C4FEA460609D03304D5E90101F5D530
S31500001E50FFF7D4FE013C4FEA4606F5D1D5E901016C
S31500001E60BDE8F840FFF7E8BE10B54168097B40F6CB
S31500001E70E15340F2E112002918BF1A460446C26037
S31500001E800421FFF7ABFF4FF4905220460021FFF7E5
S31500001E90A5FF04212046FFF7EBFE002010BD00BF82
S31500001EA0704700BFF8B50A78164B4160920213449A
S31500001EB00025C0E902354B7BAB42134B0CBF102209
S31500001EC02A460F461A7029464FF400420646FFF787
S31500001ED085FF01E0AB4212D900213046FFF7C8FE6C
S31500001EE010F400447B6805F10105F3D1AB4206D935
S31500001EF03046FFF7D5FF054B33602046F8BD142466
S31500001F002046F8BD20410640000D04405948505275
S31500001F1083681A68002A19DB10B40E4A1C68996097
S31500001F2022401A601A68416942F000421A600A6942
S31500001F30DB688360012A05D0012300205DF8044B8D
S31500001F400B61704700205DF8044B704740F6A670A1
S31500001F50704700BF60FCFFC74369D3F8D8306BB148
S31500001F6042689069127F103B984209D89A682AB154
S31500001F701B68002B02DB0A60002070472220704796
S31500001F8002F18053013B00EB0313EFE72DE9F0412B
S31500001F9042680546506B6F6984680068D4F80C8007
S31500001FA02C6984B00023CDE9013303930E4603ABBD
S31500001FB002AA01A9C04738B9019B013B032B03D8EC
S31500001FC0DFE803F02F3A4F0740F6A17004B0BDE8F2
S31500001FD0F081236843F002032360236843F004037F
S31500001FE02360002E32D16A681379012B44D023680E
S31500001FF06FF31043236023686FF351432360236814
S31500002000D27862F300032360236843F04003236021
S315000020102368012243F0200323603A6104B0BDE83F
S31500002020F08123686FF34103236023686FF3820313
S3150000203023605EB96A68DAE7236843F00203236027
S3150000204023686FF382032360002ECCD0236843F409
S3150000205000732360236843F04003236004B0BDE8A7
S31500002060F08123686FF341032360236843F0040380
S315000020702360002EDED0E9E700214FF6FF7363658B
S31500002080616639672368194D43F400232360029B78
S315000020909E00039B06F00C0603F003031E438C46CA
S315000020A00C2303E015F8043C15F803CC33406345D4
S315000020B005F104050ED001310829F3D1002321686A
S315000020C06FF310412160012B236895D143F400334F
S315000020D0236094E7064B03EB81018D78CB78012DC5
S315000020E0EDD1216841F480312160ECE704650100FF
S315000020F000650100F8B54268066992F9283047691B
S31500002100002B044610DB5A091D482032012103F03A
S315000021101F0301FA03F340F82230BFF34F8FBFF3DA
S315000021206F8F626892F92830526B1649002541F884
S315000021302350936810685B689847B36965F3820318
S31500002140B3613B6B65F396533B633560A561EFF373
S315000021501080012383F3108861680B4A0978C1F166
S315000021600F018B40D2F800110B43C2F80031D2F8B0
S31500002170003180F31088C4E900552846F8BD00BF39
S3150000218000E100E03C14FE1F006F04404368196A3A
S31500002190B9B170B55A7805468AB91E7F5A7F16447A
S315000021A066B1B600002401E06B68196A08595A6ADC
S315000021B00021043412F0C2FFA642F5D170BD5E7F45
S315000021C0EEE770472DE9F0410A784160970202F187
S315000021D0401202F5C062A7F1BF271602A7F57907DC
S315000021E0C0E904760B46002181615A7F044612013C
S315000021F0586912F0A3FF63681A7F986900211201DB
S3150000220012F09CFF2046FFF7C1FFEFF310804FF05E
S31500002210010888F3108863683A4A1B78D2F80011DF
S31500002220C3F10F0308FA03F321EA0303C2F80031EE
S31500002230D2F8003180F31088626933491368334855
S3150000224043EA080313600B68B0FBF3F041464044D1
S3150000225000F0A8FC626863699068996F60F30501F5
S3150000226099675079996F60F311419967536B9A6832
S31500002270D3E90001126890470546002837D1636804
S315000022805B6B9A68186893689847214B37223A61C6
S31500002290B362336B43F480033363626892F9283088
S315000022A0D26A03F1604101F561411201D2B281F8AF
S315000022B00023184A184942F8234003F1C0005A097E
S315000022C051F82060920002F1604202F5614265F326
S315000022D0104603F01F0341F8206008FA03F3C2F822
S315000022E0803113600D4B23602846BDE8F08141F232
S315000022F0883240F6A573904208BF1D462846BDE8C1
S31500002300F08100BF006F0440C815FE1F00E1F5050F
S315000023109F0FFF473C14FE1F006000404548544590
S31500002320F8B5C37E012B30D103691B689B050446B3
S3150000233028D4406843780E4615465BB9E3681F68A3
S31500002340002F27DB406A824224D8986812F0CEFE1E
S3150000235063685B786169012BE368AAB2DA801A6860
S3150000236008BF9E6022F040521A601A68D86842F090
S3150000237030421A608B68E060012B09D001238B6024
S315000023800020F8BD40F6A270F8BD40F6A170F8BD79
S315000023900020F8BD40F6A370F8BD00BFC37E012B38
S315000023A01FD103691B689B0518D483681A68002A25
S315000023B01CDB10B4114A1C68D96822401A601A68DE
S315000023C042F000421A60436981601A69012A0BD003
S315000023D001221A6100205DF8044B704740F6A27096
S315000023E0704740F6A17070470020F4E743691A6908
S315000023F0012A1CBF01221A610020704760FCFFC73A
S315000024002DE9F04F83B00746406901920368D7F87B
S31500002410108043F001030360654B66481B68B0FB00
S31500002420F3F00D460130012100F0BCFB7E687C69AB
S31500002430B268A36F62F30503A3677279A36F62F3B1
S315000024401143A367AB882A685BBA12BA9BB2C8F875
S31500002450C020C8F8C830717F002900F09C80D6F8EB
S315000024601490356AB6F824804B46284609EB011EBF
S315000024704FF0000C4FF0004A8B4607E00168916070
S315000024807345C2F800A000F104000DD01A46A3F867
S315000024900680A3F804C01033D360002DEED1734537
S315000024A0956000F10400F1D10BF1FF33180109EB3F
S315000024B0031359F8002042F0804249F80020C3F87F
S315000024C00C90C7F80890594696F81CB0BBF1000F5F
S315000024D06BD096F80180D6F818A042468900A0462F
S315000024E053460AEB0B1E012000251446D8809C4655
S315000024F09D8043F8105B0022CCF80C3014B9326A88
S3150000250002B15258CCF80820734501F10401EDD10F
S315000025100BF1FF3344460AEB03131A68C3F80CA009
S3150000252042F080421A60C7F80CA0019A3B69012A62
S3150000253028D0226B42F480022263226B42F480226E
S315000025402263226B42F40012226340F2EE51F268DB
S31500002550996014211965DA66236843F04003236005
S31500002560C4F82090C4F818A0B37803B18023A363FD
S31500002570002140F20F720123A1642265A36503B016
S31500002580BDE8F08F9A6942F002029A61226B42F42A
S3150000259080022263D9E796F81CB0D7F80890BBF101
S315000025A0000F96D1D7F80CA0BFE7D6F818A0B4E76D
S315000025B0C815FE1F00E1F505F0B5837E012B87B037
S315000025C0044620D1466800228276336B33B13178D7
S315000025D001918DF8082001A898476668237E8DF83A
S315000025E003302046FFF786FD054610B1284607B0A2
S315000025F0F0BD31462046FFF7E5FD05460028F5D13A
S315000026009DF80330237663685B6B9A6818681369D4
S31500002610984741F288339842237E54D0002B30D11C
S31500002620012323760026636866765A7F5869314609
S31500002630120112F083FD63681A7F98693146120110
S3150000264012F07CFD2046FFF7A1FD01276368E776BF
S31500002650196932462046FFF7D3FE31462046FFF77A
S3150000266095FC0546002838D163681A6B002ABDD050
S3150000267019789B6B01918DF80870059301A8904716
S31500002680B4E70025637E022BCCD0012BAED12269A4
S3150000269000236376116863F386111160116863F392
S315000026A0451111606268E376136B002B9ED010789B
S315000026B0926B0190022101A88DF8081005929847A7
S315000026C0284607B0F0BD012B02D040F6A175D9E728
S315000026D00023237640F6A175D9E70223E6766376D2
S315000026E084E700BF38B5C57E012D03D040F6A1753D
S315000026F0284638BD43682A4619690446FFF780FE16
S3150000270029462046FFF742FC05460028EED16368BD
S315000027105B6B9A6818681369984741F28833984248
S31500002720E4D0284638BD00BF2DE9F04190F81BC023
S31500002730BCF1010F37D10546006903689E052DD40B
S315000027408E46AB682C4917461C68002C21DB6E6848
S31500002750B47814B91A6814063CD41C6814F00064E2
S3150000276026D00468A20519D41A68002A08DB1A685C
S315000027700A401A601A6842F000421A60DB68AB60D1
S315000027806A691469012CDFD0C2F810C01C68002CDD
S31500002790DDDA4FF47A642046BDE8F08140F6A27493
S315000027A02046BDE8F08140F6A1742046BDE8F081E0
S315000027B0B3F80480727912FA88F8B8F1000FE8D0FD
S315000027C0727899687AB1CEF80010C7F80080204672
S315000027D0BDE8F0812846FFF7E1FD40F6A474002825
S315000027E018BF0446DCE77046424612F07FFC2846D6
S315000027F0FFF7D4FD0446E8E760FCFFC710B586B0D6
S31500002800EFF30383103B184A5BB252F82330D3E947
S31500002810044120698A6A12F4800F07D010F0020F73
S315000028201CBF4FF0010C83F81AC020615B688A62F6
S31500002830196B51B11C7801949B6B05930324CDE968
S3150000284003028DF8084001A88847EFF30383103B85
S315000028505BB2064AC03352F823106FF3104142F8B8
S31500002860231006B010BD00BF3C14FE1F00600040E0
S315000028708268117A01F00101137AC3F34003994289
S31500002880FAD1F12313720020704700BF8268107AD4
S3150000289000F00100137AC3F340039842FAD1137A89
S315000028A0C3F340030B7113889BB200200B60704783
S315000028B0F0B40B7C03F1401303F500631B02C0E97F
S315000028C00113EFF31085012383F310880C7C394A3A
S315000028D0C4F10304A340D2F8084124EA0303C2F872
S315000028E00831D2F8083185F3108882680023137204
S315000028F0137AC3F3400C9B07FAD4CC6982F80AC05A
S31500002900E37826780D7A247903F00703002E42D166
S31500002910002D47D114734C6847680026967353728E
S31500002920631E95729BB2C4603D7C1380224B43F8B4
S31500002930254091F91230B34222DB4A7C03F1604410
S3150000294004F561441201D2B284F800231B4A1C4CE0
S3150000295042F8230003F1C0055A0954F82570920085
S3150000296002F1604266F3104744F8257002F56142B1
S3150000297003F01F03012404FA03F3C2F88031136045
S31500002980D1E9054100230F4A0461C0E9053102601F
S31500002990F0BC18467047502E06BF43F050036546FC
S315000029A03343B7E785F0020543EA0513DBB2354644
S315000029B0B0E700BF006F0440F013FE1F3C14FE1F7B
S315000029C00060004054474100F0B585B0EFF3038343
S315000029D0103B5BB203F1C0011F4A204C52F82100A4
S315000029E06FF3104042F8210054F82350D5E9010254
S315000029F00178137A0129DBB20CD1F42103F0F0033C
S31500002A001172E9681372047C154840F824100139E4
S31500002A1089B211802F69B7B16C6901AECCB194E867
S31500002A20070086E807009B0644BF00232371AB69B5
S31500002A3023602046B8476B691BB196E8070083E818
S31500002A400700AA68137ADBB203F00F03137205B00E
S31500002A50F0BD3446E7E700BF006000403C14FE1FAF
S31500002A60F013FE1F064B074993F826001A6A51F821
S31500002A7020300549C2F30262D3400B60704700BFA5
S31500002A8000E001404801FE1FC815FE1F30B4374B59
S31500002A90374C3849384800224AF20355A3F8FE530A
S31500002AA0A4F80021354C4C60354D364C08604FF487
S31500002AB00040C1E9020493F82640C1E9040551F833
S31500002AC024001C6A304DC4F30264E04009242860E7
S31500002AD083F8132483F8A24093F8800418B183F88E
S31500002AE0812483F88024214A0620002382F8A50049
S31500002AF082F8323092F83C301807FBD5002342F2B8
S31500002B000170108582F82A30184B93F83C20920603
S31500002B10FBD5174A022082F81C01052083F82600FF
S31500002B201A48186293F826001C6A51F82000C4F36C
S31500002B30026C20FA0CF02860012140244FF4254055
S31500002B4083F8301083F8521083F8531083F824402A
S31500002B50A3F8FE03A2F80411B2F804319BB2002BCD
S31500002B60FAD1012330BCA2F80031704700E00140E1
S31500002B7000C001404801FE1F002D310100127A00FD
S31500002B80001C4E0E00366E01C815FE1F21120121D3
S31500002B90704700BF00BEFEE7A0F101000028FBD190
S31500002BA0704700BF30B5144D144A00FB01F14FF4D5
S31500002BB07A732868B2FBF0F2A1FB03C44FF0FF3032
S31500002BC04FF0000E60457EEB040407D3BCFBF2F029
S31500002BD0800878B1BDE83040FFF7DEBF9200B1FB58
S31500002BE0F2F1A1FB031388427EEB0303F2D30846FE
S31500002BF00028EFD130BD00BFC815FE1F00CA9A3BA2
S31500002C000B4B70B5B3F840510A4E0024ADB225FA0D
S31500002C1004F3DB07E0B203D556F8243003B1984736
S31500002C200134102CF3D1024BA3F8305170BD00BF14
S31500002C3000600040F813FE1F10B4074A074C00233B
S31500002C4003F1C001013332F8020F44F82100602B72
S31500002C50F6D15DF8044B7047166201000060004033
S31500002C60EFF31081012383F31088124B33F8102001
S31500002C7092B22AB133F81020013A92B223F810200A
S31500002C8033F810309BB293B90B4A10B4B2F8FE3346
S31500002C900A4C9BB234F8100043F4254323EA0003A0
S31500002CA0A2F8FE3381F310885DF8044B704781F378
S31500002CB010887047BC15FE1F00E00140206501002A
S31500002CC030B4EFF31081012383F310880E4A32F8F3
S31500002CD010309BB26BB90D4C0D4DB4F8FE3335F880
S31500002CE010C09BB243EA0C0343F425439BB2A4F8FD
S31500002CF0FE3332F8103001339BB222F8103081F3E4
S31500002D00108830BC704700BFBC15FE1F00E00140B4
S31500002D10206501000B4A08B50346106840B103332D
S31500002D20094923F0030303448B4204D8136008BD0A
S31500002D3006481060F3E712F06BF90C2303604FF0BE
S31500002D40FF3008BDC415FE1F50EA0020506A00205F
S31500002D5000BE704708B500F003F8FDF77DFEFEE7FC
S31500002D60224B234A4FF4700170B50020C3F8881037
S31500002D709A60FDF7E5FBFFF789FE0120FDF7E0FB12
S31500002D801C4B1D491D4D1E4E1E481F4A00244FF464
S31500002D90254C9C80A3F800C09E60DD604FF48055F2
S31500002DA0A1F8205101219980121A214612F0C6F984
S31500002DB01648174A1749184D121A12F097F9174B69
S31500002DC05B1BA34206DD9E1055F8043B0134984771
S31500002DD0A642F9DCFFF746FE0220FDF7B1FBFFF73E
S31500002DE02BFFBDE870400020FFF7D2BE00ED00E0EB
S31500002DF000000000000D00400060004050EE002082
S31500002E0050EA00206001FE1F4C6A00200000FE1FF1
S31500002E104801FE1FEC8C01003C01FE1F4401FE1F11
S31500002E202DE9F041194E356825B1281E18BF01203D
S31500002E30BDE8F0810A21084603F090FC3060F0B14D
S31500002E401349144C144F03F0B1FF134803F08EFAE4
S31500002E5004F5B4782046A56103F094FAE4602146AF
S31500002E603846243403F0A2FA4445F3D135680B4BB7
S31500002E700A22281E1A6018BF0120BDE8F081084BFF
S31500002E80084A09486A21FFF785FE00BF4C17FE1F56
S31500002E90F0650100E415FE1FD015FE1FCC15FE1FC0
S31500002EA0C86501004C6601004C65010070B504461A
S31500002EB0806910B10A3803F001F90025A561FDF714
S31500002EC0BDFE0B48236983420DD0214603F05EFA0E
S31500002ED0FDF7DCFE074A2B46106829462A46BDE860
S31500002EE0704003F069BCBDE87040FDF7CFBE00BF7F
S31500002EF0D015FE1F4C17FE1F40F2EA53984270B5DC
S31500002F002FD8204B1B6863B3421E402A2CD9841C41
S31500002F10A20702D044F00300441C184603F04AFE00
S31500002F2001281ED1184EFDF789FEF368DD68284694
S31500002F3003F054FAFDF7AAFE144B32681968914261
S31500002F4088BF1A60AB69B3B904F10A0003F016F83A
S31500002F500646A86150B146F80A5B2846C5E90664EC
S31500002F6070BD0025284670BD4424D6E72846FFF7E5
S31500002F709DFF3546F6E7064B064A0748FE21FFF752
S31500002F8009FE00BF4C17FE1FD015FE1FCC15FE1FF5
S31500002F90FC650100286601004C6501002DE9F84F2B
S31500002FA04F4B504A5B6952680F46594011420646DC
S31500002FB001D0002B3CD14FF0000B4FF0FF384A4CAC
S31500002FC04FF0FF0AC1465D46A6B3062231462046AB
S31500002FD012F07CF854F8043C002840D09F4242D0BE
S31500002FE0A379534501D29A46AB460135062D04F125
S31500002FF00C04E9D1B8F1FF3F37D0B9F1FF3F4ED10C
S3150000300008EB4801394A89004FEA48035750002E19
S315000030105AD098444FEA880808F104033068D05023
S31500003020D11890444FF4CB73B2888A80A8F80A303E
S31500003030BDE8F88F54F8043C9F42D1D1B8F1FF3F68
S3150000304047D02A4A05EB450508EB480802EB8503FD
S3150000305042F82560C3E9016642F82870E8E79F4216
S3150000306011D0A846C1E7A946BFE7B9F1FF3F14D082
S315000030701E4A09EB49014FEA490342F82170002E26
S31500003080D6D0C846C5E7194B05EB450503EB8505C4
S315000030904FF4CB736B81BDE8F88FD846B0E7134A7F
S315000030A009EB490902EB890008EB48034FEA890955
S315000030B0002142F80910C0E9011142F823704FEAD5
S315000030C04803002EB4D0A4E70A4405235381BDE883
S315000030D0F88F064B05EB450543F82570A8E700BFBA
S315000030E01800FE1FD417FE1F5417FE1F5017FE1F91
S315000030F0F0B5244E746983B094B1838AC169B3F57F
S31500003100807F054608D0B3F5007F09D11630FFF75A
S3150000311045FF002003B0F0BDD0F826309C4202D017
S31500003120002003B0F0BD00F1160738460191FFF705
S3150000313035FF019900230222A1422B756A750FD033
S31500003140D5F816302B62BB88AB84C5F826103068DC
S31500003150C5F81600B388BB807369EB610220E0E70F
S3150000316009492B6208688988C5F806006981AB841D
S3150000317085F8263085F8273085F8283085F82930F7
S31500003180E5E700BF1800FE1F6069010070B504681E
S31500003190054620460E4600F005FD38BB2B685A1C36
S315000031A01AD01E4A11698B4216D01D494969D9B1F8
S315000031B054685940214216D09168A1B1194C002398
S315000031C054F823208A4203F1030317D0013006285E
S315000031D0F6D12960002070BD134B1A689B883260B7
S315000031E0B380012070BD3BB9022070BD2046314638
S315000031F000F0E2FC012070BD1946DFE700EB40005D
S3150000320004EB80038000DB7A002BEDD0043023181A
S31500003210205830609B88B380012070BDD417FE1FF4
S315000032201800FE1F5017FE1F60690100F8B580B335
S31500003230C369292B044633D985691D4EAC4606F170
S315000032402007B646BEE80F00BE450CF1100C06F18D
S3150000325010064CF8100C4CF80C1C4CF8082C4CF8CA
S31500003260043CEED1134B3068B288CCF80000ACF8C1
S3150000327004201868C5F806009A886A81C5F8160001
S315000032805B69EB616A836269C5F826202A23E361DC
S31500003290F8BD094B094A0A4840F22A31FFF77AFC81
S315000032A0084B064A064840F22B31FFF773FC00BF75
S315000032B0206701001800FE1F6C66010048670100C8
S315000032C08C660100E866010030B5002183B0054632
S315000032D02A20FFF711FEB8B145610446FFF7A6FFA5
S315000032E000F07EF830B10121204603B0BDE8304041
S315000032F0FDF75EBE02234FF0FF3168468DF80030C1
S31500003300019400F06DF908B103B030BD2046FFF717
S31500003310CDFDF9E738B5144C04F14805A27A531EE1
S31500003320DBB222B1E27AA372AAB1032B13D90C3411
S31500003330AC42F3D10D4D04F0F3F82B68044623B1EB
S31500003340C31A44F62062934204D9094B5869FFF721
S31500003350BBFF2C6038BD2068FFF7B6FFA37A002BB1
S31500003360E5D12360E3E700BF5017FE1F9817FE1F45
S315000033701800FE1F02484822002111F0DFBE00BFE0
S315000033805017FE1F0378D90701D4002070479A070B
S3150000339070B5044600F1040611D52569304604F0DF
S315000033A021FAB5FA85F32278E5605B095B0022F025
S315000033B0030243F0010313432370012070BD00F1A3
S315000033C00C01304604F03AFA18B1237843F00203B0
S315000033D0237023789B0758BF0020DED470BD00BF42
S315000033E008B504F07BFA034B1B68181AB0FA80F094
S315000033F0400908BDCC17FE1F08B504F06FFA074A4E
S315000034000749106800231A4603F0D6F9054B012830
S3150000341014BF012200221A6008BD00BFEC17FE1F70
S3150000342068690100E817FE1F28B1830702D150F82A
S31500003430340C7047002070472DE9F04F1F46414B72
S315000034401C6883B0002C75D13F4D90462A68002A2F
S3150000345069D1DFF82C91D9F80020002A5CD1834687
S315000034608A460F20082103F0E7F8286000284CD090
S31500003470364903F09BFCFFF7D3FC012836D13448CC
S31500003480DBF800600660DAF800504560D8F8008086
S31500003490C0F808803B68C36066EA050AC0F810A059
S315000034A08446BCE80F002B4C2B4F0FC47E61C4F83A
S315000034B000A0B8F1000F03D086EA08062E421DD1FF
S315000034C00C9B186838609B88BB8000F099FC03232E
S315000034D0CDE900392149224800234FF4207203F038
S315000034E0D5FE0446204603B0BDE8F08F286803F0F9
S315000034F031FC20462C6003B0BDE8F08F194B1A4A08
S315000035001A484FF49761FFF745FB194B164A1748BF
S3150000351040F29241FFF73EFB164B134A134840F226
S315000035207B41FFF737FB144B0F4A104840F27A41B4
S31500003530FFF730FB114B0C4A0C4840F27941FFF77C
S3150000354029FB00BFD017FE1FEC17FE1F58680100AD
S31500003550D417FE1FB817FE1F1800FE1F2C690100A6
S31500003560D1360000606801005069010094670100CF
S315000035703468010014680100F06701006467010007
S31500003580CC17FE1F10B5134B82B01A688DF80000D9
S31500003590002101916AB948B90F4C04F09FF9002344
S315000035A01A462068694603F007F90246104602B03B
S315000035B010BD0628F0D1094A074C1378206843F05D
S315000035C00203137003F0ACFB0028E6D0012210467C
S315000035D002B010BDD017FE1FEC17FE1FF817FE1F16
S315000035E0154B1B6870B504460D469BB990F9002033
S315000035F002BB124E04F072F9114A126803469A424F
S3150000360014BF2A460022306821460023BDE87040D8
S3150000361003F0D2B890F90030062BEAD1094A074EDA
S315000036201378306843F00203137003F079FB002827
S31500003630E0D00123184670BDD017FE1FEC17FE1F01
S31500003640CC17FE1FF817FE1F70B51B4C1B4D2378B9
S3150000365028686FF30003012823702AD001262E6004
S31500003660FFF788FEFDF768FCB04203460ED040F631
S31500003670B83003F02DFF12480021FFF7B1FF114BC0
S31500003680B0420ABF00221E601A6070BD0E4A0020BA
S31500003690136042F21075FDF749F80C48256104F0F5
S315000036A0A1F82378E56023F0030343F001032370B8
S315000036B070BDFDF73BF8D1E7A017FE1FB417FE1F3C
S315000036C068690100E817FE1FF017FE1FA417FE1F0A
S315000036D02DE9F04F7F4DDFF814927F4E7F4F8BB070
S315000036E0FFF78AFE4FF47A74281D2C6104F07AF8ED
S315000036F02B78EC6023F0030343F001030122784C9E
S315000037002B70C9F80020DFF8E8812046FFF73AFE63
S31500003710002840F0CA80306803F002FB002840F021
S31500003720BF806C48FFF72EFE3B68002B40F0A08060
S315000037300123002840F09D80D5F80CA02378DB07F4
S3150000374040F19380E26842F20F739A4200F28D8054
S3150000375022693068524528BF524604A903F068F929
S3150000376048B9FF238DF810305E4B1B68002BCCD078
S31500003770FFF76AFFC7E79DF910300A2BF4D801A2BC
S3150000378052F823F05F380000313800002738000077
S315000037902138000019380000693700000F38000092
S315000037A0ED37000069370000B9370000B137000077
S315000037B0059800F09DFDD7E7DDF814A0BAF82400BF
S315000037C0002340BAAAF82430ADF81A00082206A948
S315000037D05046079300F0E8FCDAF8003043F0100397
S315000037E05046CAF8003000F065FFBDE7DDF814A0CA
S315000037F0504602F0C9F90028B6D0DAF8003043F096
S3150000380004035046CAF8003000F054FFACE72B78AA
S3150000381043F002032B70A7E7059802F0CFFAA3E75F
S31500003820FFF778FDA0E705980121FDF7C1FB9BE7AF
S31500003830059B002B00F08681DA690D2A0BD9D3F897
S3150000384018A0BAF80C10082954D0B1F5C16F02D1EE
S31500003850292A00F2FE801846FFF728FB84E7224B50
S3150000386000221A60FFF7F0FE7EE742F2107270E760
S315000038700123184600F050FF8246404603F0B2FF8F
S31500003880BAFA8AF32A78C5F80CA05B095B0022F025
S31500003890030243F00103134300222B703A604DE705
S315000038A00C48FFF76FFD002343E7D9F800300322E9
S315000038B04FF0000A8DF82020CDF824A0002B3FF40D
S315000038C02AAF04F00BF830685346524608A902F0B6
S315000038D073FF20E7F817FE1FEC17FE1FF417FE1FF5
S315000038E0A017FE1FE817FE1FF017FE1FD017FE1FBA
S315000038F0FC17FE1F212AAED99AF80EE04FEA8E0079
S3150000390000F03C01A2F10E0C61450191A3D81329E8
S31500003910A1D9BAF814C02CF0F00CBCF1000F9AD162
S31500003920AEF1450EBEF10A0F95D8DFF834B2DAF8DB
S315000039301EC0DBF814108C450AD0BCF1FF3F07D03F
S31500003940DFF820E2DEF810E0F44501D0002982D14C
S3150000395000F03C0000F10E0C6245FFF47CAFBAF8B3
S3150000396010C09CFA9CFC1FFA8CFC0CF10E0E7245E2
S31500003970FFF471AF9AF81710029111290AD0029933
S31500003980062900F0DC80029901F1FF3EBEF1010F2D
S315000039903FF661AF00F1160E7245FFF45CAFACEB7B
S315000039A0000CBCF1070F7FF656AFC0F5BB600430C4
S315000039B084453FF650AF02991129019968D0142920
S315000039C013D00393223AA1F114030E31D21A5144B3
S315000039D00AF12200019311F097FB039B0199DA6922
S315000039E0521ADA6145228AF80E200193DAF81A1083
S315000039F00AF10600FFF7D2FA029B062B019B00F0A4
S31500003A008F80029A012A7FF426AFDA69292A7FF687
S31500003A1022AFDAF81E00DBF8142090427FF41BAFC9
S31500003A20996991F82220082A7FF415AF8A8CD1F87B
S31500003A301AC0C1F81A00002081F822004FF6F6706D
S31500003A4082428CBF02F584720832C1F81EC08A8495
S31500003A5008E050460193FFF74BFB0228019B13D168
S31500003A60DFF8FCB09A69D2F80600106050899080A1
S31500003A70DBF80000C2F80600BBF804005081012103
S31500003A801846FDF795FA6FE603283FF46DAEE2E6B9
S31500003A900AEB0100808A00283FF4DDAE0199142963
S31500003AA01BD00293019BA3F1140B0E331946223A45
S31500003AB0A2EB0B0251440AF1220011F025FB029BF6
S31500003AC0DA69A2EB0B02DA6145228AF80E20DA697E
S31500003AD0292A7FF6C0AED3F818A0BAF8261049BA3C
S31500003AE089B207297FF6B7AEA1F108002A3A8242C9
S31500003AF084BF2231D9619AF823109AF8222042EA2B
S31500003B0001221A84DAF81A205A61BAF824100193AD
S31500003B10184602F0C5F90128019B7FF49CAE23E606
S31500003B201846019301F092FC0128019B03D03A68E4
S31500003B3001323A608FE63B6801333B6014E600F1E0
S31500003B40220E29E7034B044A044840F29B61FFF723
S31500003B5021F800BF6C66010034690100946701001A
S31500003B601800FE1FD417FE1F10B5044606220B4888
S31500003B70214611F0ABFA28B109480622214611F078
S31500003B80A5FA40B9A08940BA80B2B0F5C06F94BF1B
S31500003B900020012010BD002010BD00BF1800FE1F30
S31500003BA06069010000BA00F10050B0F1805F2CBFDF
S31500003BB000200120704700BF00BA012200234FF009
S31500003BC05E0C0A704B70C0F30642030A81F802C00D
S31500003BD0CA700B71487170472DE9F04143BA11F074
S31500003BE001089BB24FF0000401F003000AD01D0249
S31500003BF0ADB245EA1323002A73D011F8015B013AEE
S31500003C0065F30F240138012859D922F0030502F083
S31500003C1001070C3D02F00E02481981425FD2013DB8
S31500003C20184601F1200E25F00F039E4401F1100CF9
S31500003C3000265CF8103C1B185CF80C0C28BF0136FB
S31500003C401B185CF8080C28BF01361B185CF8040C1E
S31500003C5028BF01360CF1100C1B1828BF0136E645AB
S31500003C601846E6D125F00F0510352944180C8D1895
S31500003C7010FA83F38D421E440AD9084630F8023BF7
S31500003C8085421E44FAD8013A22F00102023211445A
S31500003C9017B10B7863F307042644330C13FA86F343
S31500003CA0180C10FA83F3B8F1000F04D0180280B292
S31500003CB0C3F3072303435BBA98B2BDE8F081012A38
S31500003CC013D9971E27F0030531F8022B0C3D48192E
S31500003CD08142134407F00E0207F001079FD3002626
S31500003CE0C4E717466FF00B0596E717466FF00B050E
S31500003CF0002291E721294ED9F8B5837B9B0003F07A
S31500003D003C03144603F10E028A42864640D8B0F8B8
S31500003D1010C09CFA9CFC1FFA8CFC0CF10E028A4225
S31500003D2036D8C57DA3F11402112D00EB020735D05C
S31500003D30062D29D06A1E012A3DD803F116028A42B1
S31500003D4026D807F1240684B300223280BEF810C0BC
S31500003D509CFA9CFC1FFA8CFCACEB0302072A17D9D1
S31500003D60C3F5BB600430904212D3022D29D807F167
S31500003D7022010020FFF730FFC04380B264BB002859
S31500003D8035D043BA98B2F8BD03F122028A4215D95A
S31500003D9041F23420F8BD41F23420704703F1160297
S31500003DA08A42F5D807F12806CDE730880028D3D116
S31500003DB0112DD1D1F8BD44F22130F8BD07F13206FC
S31500003DC0C1E7EB1A634408320EF11A0198B2FFF705
S31500003DD003FFC04380B2D1E728B9112D4FF0FF355C
S31500003DE018BF0025A8B245BAA8B23580F8BD4FF66F
S31500003DF0FF70F8BD014B1868704700BFD017FE1F53
S31500003E0008B5044802F0B2FABDE80840024802F0DC
S31500003E10ADBA00BF2018FE1F0C18FE1FF8B50446E9
S31500003E200E461546FFF7E6FF002846D0022C53D172
S31500003E30434B9B68013367D1424B9B6801336AD180
S31500003E40112D3ED0062D6DD1012E08BF4FF4987668
S31500003E506FD1304602F092F8044670B302F070F962
S31500003E60074638B332460021204611F067F9112D76
S31500003E70676038D004F1080002F084FA42F2107349
S31500003E800222062DC4E90733646184F8262084F8EB
S31500003E90275014D140F2B452012340F6B83041F213
S31500003EA01C11C4E91901C4E93233A4F84220A4F86C
S31500003EB0442004E0204602F001F94FF0FF3420468A
S31500003EC0F8BD022E08BF4426C3D01F4B1F4A204808
S31500003ED04FF4AC71FEF75EFE1E4B1C4A1C484FF4B5
S31500003EE0A471FEF757FE04F1300002F03FFA04F128
S31500003EF0080002F047FA42F2107341F20212C4E9D6
S31500003F0007336461E284DAE7134B104A104840F243
S31500003F104B11FEF73FFE114B0C4A0D4840F24F1174
S31500003F20FEF738FE084B094A09484FF4B771FEF709
S31500003F3031FE054B054A064840F26511FEF72AFE9A
S31500003F402018FE1F0C18FE1F846A01006C6B01000E
S31500003F508469010070690100E4690100346A0100A6
S31500003F602DE9F04786B01F4600230393431E033313
S31500003F700E9E06D8836904461BB190F82730112B94
S31500003F8005D06FF01504204606B0BDE8F087036B38
S31500003F9088469146CBB9C069039000282FD0FA060F
S31500003FA02DD404A803F01EFC02E003F047FC30BB4E
S31500003FB0039D6068009541210023012202F0CEF89E
S31500003FC0256B03A904A8002DEFD0FCF737FEE36BA1
S31500003FD017F0040ADD6818D0FCF758FEEC692A3C95
S31500003FE01EB12B8C73806B697360FB0711D5AB69AF
S31500003FF020462A33C8F8003006B0BDE8F0876FF0D7
S315000040000A04204606B0BDE8F087284602F0E6F925
S31500004010E2E74C45A969A8BF4C4640462A312246EC
S3150000402011F064F8BAF1000FADD12846FEF73EFF55
S31500004030A9E700BF70B584B004460E46FFF7D0F975
S3150000404050BB631E033321D8A369FBB90923054678
S315000040508DF808300394BEB173885BBA9BB2A38413
S315000040604FF0FF3102A8FFF7BBFA90B14FF0FF33D4
S315000040700093606800230122102102F06FF8A36903
S3150000408023B1284604B070BD0346E8E76FF0150576
S31500004090F7E76FF08B05F4E7034B044A044840F258
S315000040A0AD41FEF777FD00BFA86A01004C6B010029
S315000040B0846901002DE9F04389B0144604228DF885
S315000040C0102000220592002961D0B4F5B86F2AD8D5
S315000040D0826907460E46002A4FD0DA0627D43A6A86
S315000040E0039213F0010519D106A804F12A0903F079
S315000040F079FB03994846FEF7FFFE804698B1806932
S31500004100314622462A3010F0F1FF06A803A903F033
S3150000411095FB012810D1039529460EE03046FFF79E
S3150000412083F9804630B9002009B0BDE8F08300224B
S315000041300392D6E704F12A090399109BC8F81C904C
S315000041405B88A8F82030BB68A8F82230109B5B6813
S31500004150C8F81430D8F8183097F826209A7104A8B1
S31500004160CDF81480FFF73CFA01280ED0002DDAD1E5
S315000041704046FEF79BFE2846D6E711460193FFF719
S3150000418059FF019B0028A8D0CDE72046CCE7034B7A
S31500004190034A044840F21541FEF7FCFCD86A0100C8
S315000041A05C6B0100846901002DE9F04F3D4F90F8EA
S315000041B027209A463C4B062A08BF1F46431C85B05B
S315000041C069D00646884661B34C8821466CB3BAF17D
S315000041D0000F03D096F82730062B16D0FFF70AFEFD
S315000041E080B1FB6807F10801994203D10AE05B68D8
S315000041F0994207D01A689442F9D16FF06F0005B062
S31500004200BDE8F08FB8F80240214664BAB16038467E
S31500004210B48406F1080102F0B9F8002005B0BDE843
S31500004220F08FADF80A100DF108080023DFF888902A
S3150000423001934FF47C4507F1080B01A8FCF7F8FE43
S31500004240F0B1BDF804309C0AA9FB0424C4EB841425
S31500004250A3EB842404F58064FFF7CCFD64BAA4B212
S315000042602146A8B1FA68934503D111E052689345F7
S315000042700ED013689C42F9D1013DADB2002DDCD1C0
S3150000428000236FF07C00A8F8023005B0BDE8F08F7F
S31500004290A8F802409BE7054B054A064840F2115133
S315000042A0FEF778FC2018FE1F0C18FE1FF06A0100AE
S315000042B0406B0100846901001441100400B5431EDF
S315000042C083B00A2203338DF80020019003D9002021
S315000042D003B05DF804FB00216846FFF781F900286A
S315000042E00CBF4FF0FF30012003B05DF804FB00BFA8
S315000042F038B590F82730062B04461ED0A3691BB1AB
S3150000430004F1080002F06AF894F82730112B10D057
S31500004310606808B101F0FEFF204601F0CFFE0020E4
S3150000432038BDE36BDD68284602F058F82846FEF7EC
S31500004330BDFD236B002BF4D1EAE7C06E08B101F096
S31500004340BDFE206F08B101F0B9FE0D48A58CC3680B
S315000043500830834203D1D1E75B688342CED0DA6866
S3150000436092F84B100129F7D1918CA942F4D1B2F8F9
S3150000437046100029F0D00139A2F84610BEE700BF6A
S315000043800C18FE1F411E033100F2008108B5844659
S31500004390122A0BD8DFE802F0BCC0CD0A0D0D0A0ABE
S315000043A00A0A0A1D2E3F668F0AAAAD006FF06C003E
S315000043B008BD90F82710062940F0CE80042A00F0A8
S315000043C0CE80C06E002840F0C7801B68CCF86430F1
S315000043D008BD90F82720062A40F0BE8018689CF891
S315000043E03830002800F0AE8043F0080300208CF837
S315000043F0383008BD90F82720062A40F0AD801868AE
S315000044009CF83830002800F0A28043F0100300200A
S315000044108CF8383008BD90F82720062A40F09C809A
S31500004420026F002A40F09880C16E002940F0948007
S315000044301A68B0F84400013A0244B2FBF0F200FBFD
S3150000444002F2CCF868209CF8D0209B68CCF8643047
S31500004450D2074FF00103CCE9323368D5CCE93500F9
S31500004460084608BD90F82720062A75D11A6890F8E4
S31500004470D030003A18BF012262F3410380F8D030F1
S315000044809B0754D490F84B30042B50D9026F002A66
S315000044904DD01169936812680B449B1A994298BFD4
S315000044A05B1A002B43D00123A0F840300620FFF70B
S315000044B069F8002008BD90F8270006284CD11B6833
S315000044C0DCF83820003B18BF01235B0422F40032DD
S315000044D022F4807243F4807313430122CCF83830FF
S315000044E0ACF84020FFF74EF8002008BD836200209C
S315000044F008BD90F82720062A2ED1D3E900239A4238
S315000045002AD2416E8B4227D8C0E91723002008BD66
S315000045101B68C361104608BD90F827201B6803621C
S31500004520112A04D143F69822934288BF02620020E2
S3150000453008BD1BB390F8263043F002038CF82630F2
S31500004540002008BD60F3C3038CF8383008BD60F363
S3150000455004138CF8383008BD6FF0150008BD006FE5
S315000045600028F9D11B68BCF84420013B1344B3FB77
S31500004570F2F302FB03F3CCF8683008BD90F826206E
S31500004580184622F002038CF8263008BD6FF015009D
S31500004590704700BF10B50446FFF72CFC68B10C4904
S315000045A0CB6808318B4203D108E05B688B4205D0AB
S315000045B01A689442F9D1D86810B110BD002010BD18
S315000045C0044B054A054840F68B01FEF7E3FA00BFA7
S315000045D02018FE1F146B01002C6B0100846901007A
S315000045E02DE9F041002682B00E6001AF054695F92F
S315000045F00080B8F1300F0BD195F901E0AEF1300231
S31500004600D3B2092B34D80022104602B0BDE8F0819F
S31500004610A8F1300C5FFA8CF3092B38D895F901E034
S31500004620AEF130026C1C002305E014F901EFA8F18D
S31500004630300CAEF13002D2B24FFA8CFC03EB83039E
S31500004640092AF04625460CEB4303EED9021B18BF98
S315000046500122FF2BD7D8DBB2032E07F8013B0AD085
S31500004660BEF12E0FCFD10135002ACCD00136BEE7E0
S315000046704FF0000CD6E7002AC5D095F90030002B84
S31500004680C1D1019B0B60104602B0BDE8F081421B10
S31500004690C64618BF01220023DEE700BF00B583B07F
S315000046A0002301A90193FFF79BFF019803B05DF872
S315000046B004FB00BF836A10B5044603B198476068DF
S315000046C008B1216811B90023236010BD01F0D8FD9F
S315000046D00023236010BD00BF08B5431E033305D871
S315000046E083691BB190F82720062A02D06FF05E007E
S315000046F008BD90F84B30052BF8D190F838300121E1
S3150000470043F0200380F83830A0F840101046FEF73A
S3150000471039FF002008BD00BF2DE9F047804602F0B2
S31500004720FFFE254B254F1E68FD681860861B012E6F
S3150000473007F1080738BF0126BD424FF47A7A24D024
S315000047404FF0000910E09B1BA4F84030216819B116
S31500004750B8F1000F1CD1C246B4F8403013B19A45E7
S3150000476028BF9A46BD4210D0EC686D68B4F8403058
S31500004770002BF7D0B342E6D8A4F84090204600F0CC
S3150000478073FD0028E2DABD42EED15046BDE8F0875F
S31500004790A36A43B120469847606808B1216829B9E1
S315000047A0C4F80090D8E760680028F9D001F068FDE9
S315000047B0C4F80090D0E700BF3418FE1F0C18FE1F87
S315000047C0114830B5C46800F1080C644519D01FFAC9
S315000047D081FE9DB2002002E0646864450ED0E36865
S315000047E0998C7145F8D193F84B10012907D0998E11
S315000047F0A942F1D1196B9142EED1184630BD184647
S31500004800EAE7002030BD00BF0C18FE1F2DE9F0417D
S315000048100446C06E0D4617469846F0B143463A46E2
S31500004820294600F05BF80646A5B994F93830002B06
S315000048300CDBE26ED168136812691344013B5B1A04
S315000048409A4298BF9B1AE26D9A422CD2236843F093
S31500004850010323603046BDE8F081E06D616E38B932
S315000048601D4E01EB81008000A6FB00304009E0658B
S31500004870206E78B1043121F0030606F1140001F030
S315000048807DFBD8B100210661016041608160C16095
S31500004890E066C3E7104E01EB81000001A6FB003085
S315000048A040092066E6E7238F012243F4C07323877D
S315000048B0A4F840200620FEF765FEC7E794F83A30D4
S315000048C043F00403082184F83A30204600F02CFA1D
S315000048D04FF0FF36BEE700BF1F85EB512DE9F041D3
S315000048E0846805680646006905EB000C0CF1FF3C80
S315000048F0ACEB040C604598BFACEB000C6145174669
S3150000490027D2ACEB01049C4228BF1C46F4B1D6F872
S31500004910088011B38844804501D3A8EB00086FB125
S31500004920A0EB0805A54228BF254608F1140030442F
S315000049302A46394610F0DAFBAC422ED8F2683368C4
S31500004940984525D29A4225D3C6F80C802046BDE864
S31500004950F08100242046BDE8F08172B1A0EB080585
S31500004960A54228BF254608F1140030442A46394698
S3150000497010F0BCFBAC4217D83069A044804528BF74
S31500004980A8EB0008C6F80880F26833689845D9D3C2
S315000049909A42DBD34245D9D8D6E77919621B06F18C
S315000049A0140010F0A3FBC9E77919621B06F1140085
S315000049B010F09CFBE0E700BF2DE9F84385680F4641
S315000049C00169904602680D44A5EB020C614598BF4B
S315000049D0ACEB010C674506462BD2ACEB07049C42B8
S315000049E028BF1C4614B3D0F8009027B1B9448945B6
S315000049F028BFA9EB0109B8F1000F0DD0A1EB0905FD
S31500004A00A54228BF254609F1140131442A464046ED
S31500004A1010F06CFBAC4210D8089B3B4306D13269C0
S31500004A2009EB04039A4298BF9B1A33602046BDE8FF
S31500004A30F88300242046BDE8F88308EB0500621BD6
S31500004A4006F1140110F052FBE6E700BF094A036BBA
S31500004A500949526949681BBA53400B4240F2B452A5
S31500004A600CBF13464FF4AF63A0F84430A0F84230B1
S31500004A70704700BF1800FE1FD417FE1F026F136990
S31500004A80916810B5044650681944091A8B4298BFBC
S31500004A90C91A002900DC10BD526804F1D00001F0EB
S31500004AA00BF90028F7DD236F9A6819695C680A44D8
S31500004AB0121B91425C6898BF521A904294BF241808
S31500004AC0A4185C605A689142E5D85A68511A596030
S31500004AD010BD00BFF0B58BB0002900F0B0808C6926
S31500004AE00D4600284DD0C36E002B00F0CB80DF684A
S31500004AF01E69196831440139C91B8E4240F2C080D3
S31500004B00836B614E1E40D0F8D430002E40F0A18059
S31500004B108B4228BF0B46B0F842609E4202D9B14292
S31500004B2028BF33464FF6FC71994228BF194649BA49
S31500004B30218690F83910D0F8E0606FF30001334415
S31500004B408F07C36380F8391096FA86FCCBB240F122
S31500004B50828023F0060343F0040380F83930D0F84E
S31500004B60FC30013B1BBAC4F826308023A375474EA0
S31500004B70C4F82AC0130A43EA0223238273697BB16D
S31500004B8010E0D4F82A30D4F82610C4F82630130AD8
S31500004B90802043EA02233D4EA075C4F82A102382E2
S31500004BA0D4F81E303A49D4F81A00C4F81A300B88E3
S31500004BB0B4F824C0C4F81E00608CA084A4F822C0F7
S31500004BC0002093FA93FC0E3201330B80A4F812C036
S31500004BD02075607504F10E01EA6114222076607674
S31500004BE0FEF7FAFF40BAC043E96920830122204656
S31500004BF0FFF780F8638E2BB94FF0FF3384F832301D
S31500004C0084F83330D4F8062063892260A3803068A4
S31500004C10C4F80600B388638100212846FCF7C8F96A
S31500004C20638CA28CD4F81E106284A3842268A388A5
S31500004C30C4F81A10C4F8062063810BB0F0BD00F169
S31500004C407A044223CDE9074301AD00287FF44BAF38
S31500004C5097E700235FE7D0F8FC1094F82F300EBAE0
S31500004C60C4F82660DE0780D5D0F8F460A2F12800EB
S31500004C700144B1421CBF23F0010384F82F3074E7CE
S31500004C80891B3DE7416E3BE7800002001800FE1FCE
S31500004C909C17FE1F30B590F84B3083B044F6206564
S31500004CA0022B044601951AD0B0F840300BB103B080
S31500004CB030BDD0F8C41001AAD03001F049F8019BEC
S31500004CC0F3B14FF47A7505FB03F3AB4232BF01250E
S31500004CD0B3FBF5F39DB2A4F8405003B030BD90F895
S31500004CE039301B0706D590F84A30022B0CD942F60C
S31500004CF0F82301E04FF4FA73A4F8403003B030BD56
S31500004D00002818BF0125E6E75A1E40F6B83393403F
S31500004D104FF47A7202FB03F3934232BF0123B3FBD3
S31500004D20F2F39BB2E8E700BF70B590F84B30042B66
S31500004D3082B004463FD8042966D9082967D094F87A
S31500004D403820500770D5120776D4E56C002D00F098
S31500004D508A80EA6C002A00F084802A6842F0040205
S31500004D602A6094F8382022F00602002642F0020259
S31500004D700B2BE66484F8382006D8012202FA03F3E6
S31500004D8040F68132134259D184F84B1002F0C8FB29
S31500004D9094F83930A065002223F0060384F83930F0
S31500004DA084F8502002F0BCFB6065284602B0BDE8DE
S31500004DB07040FFF77FBC042921D8082B24D0226835
S31500004DC042F0200222600B2B06D8012202FA03F3DE
S31500004DD040F6813213424DD184F84B1002F0A0FB0D
S31500004DE094F83930A065002223F0060384F83930A0
S31500004DF084F8502002F094FB606502B070BD08296B
S31500004E0017D0082BE8D19AE711F0F70FE4D194F800
S31500004E10383013F0060FDFD01B07DDD42046019192
S31500004E20FFF74CFA0199D7E7226842F008022260A0
S31500004E30C9E7082BC3D1EAE725468AE784F84B1071
S31500004E40A4F8406002F06CFB94F83930A06523F0BA
S31500004E50060384F8393084F8506002F061FB60651F
S31500004E60A3E7EC6479E70D4B0D4A0E4840F2BC61AE
S31500004E70FDF790FE002584F84B10A4F8405002F090
S31500004E804FFB94F83930A06523F0060384F83930D7
S31500004E9084F8505002F044FB6065AEE7846B010075
S31500004EA0FC6B01009C6B01002DE9F04F0B6885B08F
S31500004EB00E460446002B7AD0D3F8188098F82F3087
S31500004EC0206F002543F0100208F1220704F1D009F3
S31500004ED0039588F82F20002853D0B4F84220012AE1
S31500004EE035D894F84B20052A40F0F38094F83830F2
S31500004EF099066FD494F85030032B00F28B80002D66
S31500004F0040F0D78094F83930DA0740D402F008FB35
S31500004F10636D94F85010C01AA14B40F6B8320029C0
S31500004F2018BF1346984230D902F0FAFA40F6C41276
S31500004F3094F83930A4F8402094F85020606543F086
S31500004F400203013284F8393084F850201FE0D4F887
S31500004F50C41003AA484600F0C9FE051E2ADC00F06C
S31500004F60F98094F8393099071DD098F82F305022DF
S31500004F7003F0F70388F82E2043F0100288F82F205C
S31500004F809FE094F84B30052B22D094F839309807DF
S31500004F9000F0A3807B7B03F0F703502243F010035D
S31500004FA03A737B732825284605B0BDE8F08F00F1DB
S31500004FB07A0883E77B4BD6F800801968C9B3B8F145
S31500004FC0000F00F08C8005F13603C8F81C3050E065
S31500004FD005468BE7484600F0B5FE00288AD094F8CF
S31500004FE039307A7B94F8381023F021036FF345119A
S31500004FF042F0010243F0210384F838107A7384F8F2
S315000050003930D4F8F030C4F8F43006212046FFF7E2
S315000050108BFE6FE708212046FFF786FE94F83930AD
S315000050209C0740F08C804FF0FF35284605B0BDE860
S31500005030F08F05F13603422B9A4638BF4FF0420AED
S31500005040B8F1000F4DD0D8F81C209245BDD9504676
S31500005050FDF752FF83460028E0D0CBF81CA0D8E924
S315000050600612DBF8180010F041F84046FDF71EFF67
S31500005070D846206F039903690268C6F80080194470
S31500005080D8F81860891A8B4206F1220706F1360213
S3150000509000D8C91A012300932B46FFF78DFC238FF6
S315000050A003F40153402B2DD094F84B30052B3FF4DD
S315000050B01DAF7B7B03F0F703502143F010023973D9
S315000050C07A73283543F0180328467B7305B0BDE88C
S315000050D0F08F94F83920920756D1002563E740F205
S315000050E0F25A00215046FDF707FF8046002895D06A
S315000050F0D8F81800C8F81CA0422204F17A010FF073
S31500005100F5FFB6E7216F039A8B6809690B449B1A72
S31500005110994298BF5B1A9842C6D196F82F3043F051
S31500005120010386F82F30D4F8FC302B44C4F8F43051
S3150000513094F8393043F0200384F83930B4E77B7BA8
S3150000514003F0F703502143F0100239737A734FF0DE
S31500005150FF35B6E794F84B30052B3FF4C7AE94F80D
S3150000516039309E073FF41FAF98F82F30282503F0FB
S31500005170F703502243F01003284688F82E2088F8BB
S315000051802F3005B0BDE8F08F23F00803502243F01E
S31500005190100388F82E2088F82F30282503E700BF53
S315000051A0C0D401006866010038B591F82F30DB07DE
S315000051B00D460446D1F82A1004D5D0F8E430013360
S315000051C0C0F8E03094F8393098062ED4D4F8F020A0
S315000051D0C4F8F42043F0200384F83930190631D599
S315000051E0013213F04003C4F8F02030D094F83A307E
S315000051F013F0010F4FF008010CBF1023002385F8B0
S315000052002F302046FFF790FD95F82F30D4F8F02088
S31500005210C4F8FC20FBB194F80C3103F128001433D8
S315000052209B0085F82E30C0B238BDD4F8F42009BAF8
S31500005230501C8142D2D143F0800384F83930DBB26E
S315000052401906CDD41123C4F8F0200A21D7E785F832
S315000052502F30C4F8FC2094F80C3114339B0085F8E9
S315000052602E30002038BD00BF2DE9F04190F84B509C
S31500005270042D86B0044607D9036F23B3FFF7FEFB60
S3150000528094F84B50042D1ED8022D32D02046FFF73D
S3150000529001FD94F84B20082A05D80123934040F2DB
S315000052A0231213420BD102F03BF9A26D47F23053A1
S315000052B0801A98423ED8012006B0BDE8F081002051
S315000052C006B0BDE8F08100230493082504A9204612
S315000052D0FFF7EAFD0246002A204604DD0499FFF79F
S315000052E0F9FB013DF2D104980028CFD0FDF7DEFD91
S315000052F0CCE794F84A30022B17D894F8392012F0EC
S31500005300080640F08880236B04A91BBA03A8039300
S31500005310FDF73CFF012818D094F84A300398013372
S3150000532084F84A30FDF7D0FFB0E708212046FFF7A2
S31500005330FBFCABE708212046FFF7F6FC94F8383073
S315000053405B07B8D54FF0FF30B6E7DFF8FC80A38ED9
S31500005350226BA18CD8F81400FBF778FE07460028CC
S3150000536094D094F8393084F84A6043F0080384F8FE
S3150000537039304222314604F17A000FF0DFFED8F8C8
S315000053801430C4F89830A38E226B049884F8A95080
S315000053905BBAA4F89C30A38CC4F8800012BAC4F897
S315000053A094205BBA5022A4F89E3084F8A8204523A6
S315000053B0BDF81420A4F8842034218022082584F81E
S315000053C08830062384F88650204684F88B1084F8AB
S315000053D0902084F89130C4F8FC7084F8876084F8D3
S315000053E08A60C4F8E060FFF731FBD4F8FC30B4F80B
S315000053F04450D4E93202CDE9003540F2B451D4F834
S31500005400E03001FB02F200FB01F104F1D00000F0F4
S31500005410EBFB94F84A30B4F8442084F8B320022019
S315000054200421013384F8B00084F8B110100A602119
S3150000543084F8B20084F8A81084F84A302C2200219F
S315000054402046FFF747FB21E71800FE1F2DE9F04F26
S31500005450C36989B0352B059003D8002009B0BDE893
S31500005460F08F85696B8CA98CD5F81E00D5F81A20AB
S3150000547095F82F70D5F82690D5F82AA05BBA49BAC8
S315000054809BB212BA89B200BAFFF79AF9044600280D
S31500005490E3D090F84B600B2E05D80123B34040F6BD
S315000054A081321342D9D14FF00008012E84F84A8088
S315000054B000F09781780700F1D98007F01F07022FC7
S315000054C001D1042EC9D8059B9B69D3F82220D3F8B5
S315000054D02600D3F82A10D3F82E60C4F8A860C4F8C2
S315000054E09C20C4F8A000C4F8A410D3F83220C4F855
S315000054F0AC2004F1D00B02F013F894F83930A06513
S3150000550023F0060384F83930002384F8503002F083
S3150000551007F895F82E30059960658E6903F0F0035B
S31500005520502B96F82E2000F2D8812B8E5BBA9BB2B8
S31500005530C4F8C430338AC96996F82F80D6F8267025
S315000055405BBA9DB20E3992088D4202F03C02A8BFAA
S315000055500D4602F1220A14329542CCBFAD1A00253F
S3150000556018F0200F3FBAB24407D0B38E5BBA9BB295
S31500005570AB429A44D4BFED1A6D1B94F84B30042B02
S315000055800AD9D4F8E0107A1C914205D194F8392052
S3150000559042F0010284F83920D4F8E82007EB050927
S315000055A0A9EB0202002AC8BFC4F8E890002D00F05B
S315000055B07381032B40F27081E36E002B00F07E8234
S315000055C01A6999681B681344013B5B1A9A4200D812
S315000055D09B1A39462A46584600F05EFB011E80F2A9
S315000055E00882059BD3F818A094F80C31039394F81D
S315000055F04B30042B40F2568194F83820D10716D54B
S3150000560004236FF3000284F8382003938AF83730B6
S3150000561002238AF83630B4F842308AF839301B0A49
S315000056208AF8383060238AF82E3094F84B3018F018
S31500005630010F11D094F8392050060DD442F04002E3
S315000056409106C4F8E49084F8392005D494F83A20F9
S3150000565042F0010284F83A209A1E082A1ED8DFE892
S3150000566002F0289B285815151D1D1500022E00F066
S315000056702B81D4F8E03099FA89F94B457FF4EDAEE9
S3150000568020464146FFF750FB4046E7E6059B20468D
S315000056909969FFF789FD002800F3A981059818B1DB
S315000056A0FDF704FC002305932046FFF7F3FA0120DB
S315000056B0D4E6059AD2F818A0DAF826609AF82F20D0
S315000056C0022B14BF1021122136BA02F017028A42A9
S315000056D000F0988108212046FFF726FBDAF82A30E9
S315000056E00399C4F8E0601BBAC4F8FC309AF82F207E
S315000056F001F1140342F004029B008AF82F2001F105
S3150000570028058AF82E3005992A462046FFF7E2F941
S31500005710C4E7059B9E69338E96F82F80D6F82670CF
S315000057205BBA9BB218F0100FC4F8C43040F0CF81BA
S31500005730236F13B12046FFF7A1F994F83920D4F866
S31500005740F010C4F8FC1008F0010302F010010B433E
S3150000575040F01E81102386F82F30002D00F03C818A
S31500005760039A02F114039B0086F82E3094F8393020
S3150000577002F128059A0603D5D4F8F430C4F8F030BF
S31500005780039B002BBFD105A92046FFF78DFB002800
S31500005790CCBF05462825B6E7B4F8443086F839303C
S315000057A01B0A86F8383012230421022286F82F308D
S315000057B0602386F8371086F82E3086F83620204685
S315000057C0FFF7B2FAD4F8EC30059901370133C4F883
S315000057D0E870C4F8E070C4F80431C4F8F0302C2541
S315000057E092E707F01F07022F7FF437AEDDF814A00B
S315000057F0DFF890B3DAF81890A18CB9F82230D9F80E
S315000058001A20DBF81400FBF721FC804600283FF441
S3150000581024AE94F8383013F00802039200F00981A0
S3150000582043F0040384F83830E464B9F82230DAF837
S3150000583018105BBAA386D9F81A20D1F82630C4F816
S31500005840FC8012BA1BBA22632046C4F8E030FFF788
